:020000040000FA
:100000000C9462000C94040A0C94DD090C948A0090
:100010000C948A000C948A000C948A000C948A0038
:100020000C948A000C948A000C948A000C948A0028
:100030000C948A000C942B0A0C948A000C948A006D
:100040000C9493090C948A000C9461090C943B095C
:100050000C948A000C948A000C948A000C948A00F8
:100060000C948A000C948A000000000024002700F1
:100070002A0000000000250028002B0000000008D6
:10008000000201000003040700000000000000005F
:1000900000000000230026002900040404040404D6
:1000A0000404020202020202030303030303010227
:1000B00004081020408001020408102001020408F6
:1000C0001020970A11241FBECFEFD8E0DEBFCDBFAE
:1000D00022E0A8E6B1E001C01D92AA33B207E1F721
:1000E00011E0A0E0B1E0E8EFF2E202C005900D926D
:1000F000A836B107D9F710E0C2E6D0E004C02197D6
:10010000FE010E946B0FC136D107C9F70E94260B72
:100110000C947A110C94000080911C028E3008F02F
:100120008E508770806480937C0080917A00806418
:1001300080937A0080917A0086FDFCCF80917800D0
:1001400060917900762F682F072E000C880B990B91
:100150000E94D60C20E030E040EA50E40E94350DC9
:1001600020E030EC4FE754E40E94970E2AE037ED90
:1001700043E25CE30E94970E08950895AF92BF9208
:10018000CF92DF92EF92FF920F931F93CF93DF9363
:100190006C017B018B01040F151FEB015E01AE1892
:1001A000BF08C017D10759F06991D601ED91FC91B4
:1001B0000190F081E02DC6010995892B79F7C501E1
:1001C000DF91CF911F910F91FF90EF90DF90CF9033
:1001D000BF90AF900895FC01538D448D252F30E0E2
:1001E000842F90E0821B930B541710F0CF96089544
:1001F00001970895FC01918D828D981761F0A28D71
:10020000AE0FBF2FB11D5D968C91928D9F5F9F7336
:10021000928F90E008958FEF9FEF0895FC01918DEC
:10022000828D981731F0828DE80FF11D858D90E059
:1002300008958FEF9FEF0895FC01918D228D892FF6
:1002400090E0805C9F4F821B91098F7399270895DE
:100250008FE791E00E941C0121E0892B09F420E046
:10026000822F089580E090E0892B29F00E942801D8
:1002700081110C9400000895FC01A48DA80FB92FE2
:10028000B11DA35ABF4F2C91848D90E001968F73BE
:100290009927848FA689B7892C93A089B1898C91DD
:1002A000837080648C93938D848D981306C002882C
:1002B000F389E02D80818F7D80830895EF92FF92F6
:1002C0000F931F93CF93DF93EC0181E0888F9B8D79
:1002D0008C8D98131AC0E889F989808185FF15C033
:1002E0009FB7F894EE89FF896083E889F989808156
:1002F0008370806480839FBF81E090E0DF91CF9125
:100300001F910F91FF90EF900895F62E0B8D10E046
:100310000F5F1F4F0F731127E02E8C8D8E110CC0B5
:100320000FB607FCFACFE889F989808185FFF5CF00
:10033000CE010E943C01F1CFEB8DEC0FFD2FF11DA2
:10034000E35AFF4FF0829FB7F8940B8FEA89FB893D
:1003500080818062CFCFCF93DF93EC01888D88239B
:10036000B9F0AA89BB89E889F9898C9185FD03C018
:10037000808186FD0DC00FB607FCF7CF8C9185FFFD
:10038000F2CF808185FFEDCFCE010E943C01E9CF05
:10039000DF91CF91089590E0FC01E458FF4F249144
:1003A000FC01E255FF4F3491FC01E656FF4FE4910A
:1003B000EE23C9F0222339F0233001F1A8F42130D3
:1003C00019F1223029F1F0E0EE0FFF1FEE58FF4F38
:1003D000A591B4918FB7F894EC91611126C0309536
:1003E0003E233C938FBF08952730A9F02830C9F0F1
:1003F000243049F7809180008F7D03C08091800078
:100400008F7780938000DFCF84B58F7784BDDBCF7B
:1004100084B58F7DFBCF8091B0008F778093B00043
:10042000D2CF8091B0008F7DF9CF3E2BDACF6F9283
:100430007F928F929F92AF92BF92CF92DF92EF9274
:10044000FF920F931F93CF93DF935B014A01390112
:1004500021E08227CEE1D2E0682F88810E94CB0183
:10046000B50181E068278A810E94CB01B40121E0B7
:1004700062278C810E94CB01B30181E068278E81C5
:100480000E94CB01B80121E0622788850E94CB0140
:10049000B70181E068278A850E94CB01B60121E07F
:1004A00062278C85DF91CF911F910F91FF90EF9084
:1004B000DF90CF90BF90AF909F908F907F906F9084
:1004C0000C94CB01CF92DF92EF92FF920F931F9388
:1004D000CC24C394D12CF12CE12C10E000E030E0CE
:1004E00020E050E040E070E060E090E080E00E94BA
:1004F00017021F910F91FF90EF90DF90CF9008951A
:10050000CF92DF92EF92FF920F931F938A30910563
:1005100008F07DC0FC01E157FD4F0C946B0F990270
:10052000A302BA02C802D002D702E802F102FC021A
:100530000003D12CC12CEE24E394F12C01E010E057
:1005400021E030E056C0D12CC12CF12CE12C10E080
:1005500000E030E020E041E050E061E070E090E059
:1005600080E00E9417021F910F91FF90EF90DF90A3
:10057000CF900895CC24C394D12CF12CE12C01E030
:1005800010E021E030E050E040E061E070E01DC0AC
:10059000CC24C394D12CF12CE12C10E000E0D0CF7E
:1005A000CC24C394D12CEE24E394F12CD0CFCC24D2
:1005B000C394D12CEE24E394F12C10E000E021E070
:1005C00030E041E050E070E060E081E090E0C9CFD1
:1005D000CC24C394D12CEE24E394F12C01E010E060
:1005E000EECFD12CC12CF12CE12C10E000E030E05A
:1005F00020E041E050E0C9CFCC24C394D12C9BCF64
:10060000CC24C394D12CEE24E394F12CC6CF1F91BB
:100610000F91FF90EF90DF90CF900C946202CF92F9
:10062000DF92EF92FF920F931F9361E080912C0273
:100630000E94CB01D12CC12CF12CE12C10E000E068
:1006400030E020E050E040E070E060E090E080E0EA
:100650000E9417021F910F91FF90EF90DF90CF90B3
:100660000895CF93DF9390E0FC01E255FF4F249172
:1006700086569F4FFC0184918823C9F090E0880F33
:10068000991FFC01E859FF4FA591B491FC01EE5868
:10069000FF4FC591D49161110DC09FB7F8948C9113
:1006A000209582238C938881282328839FBFDF9104
:1006B000CF910895623051F49FB7F8943C91822F06
:1006C000809583238C93E8812E2BEFCF8FB7F894FE
:1006D000EC912E2B2C938FBFEACF3FB7F8948091EB
:1006E000710190917201A0917301B091740126B5CE
:1006F000A89B05C02F3F19F00196A11DB11D3FBF5A
:10070000BA2FA92F982F8827BC01CD01620F711D28
:10071000811D911D42E0660F771F881F991F4A9522
:10072000D1F708958F929F92AF92BF92CF92DF92AE
:10073000EF92FF926B017C010E946D034B015C0103
:10074000C114D104E104F104B9F00E946D036819E9
:1007500079098A099B09683E73408105910580F3F8
:1007600021E0C21AD108E108F10888EE880E83E082
:10077000981EA11CB11CE4CFFF90EF90DF90CF90AA
:10078000BF90AF909F908F9008950895FC010190C5
:100790000020E9F73197AF01481B590BBC018FE7E7
:1007A00091E00C94BE008F929F92AF92BF920F93F4
:1007B0001F93CF93DF93CDB7DEB7A1970FB6F89411
:1007C000DEBF0FBECDBF19A2423008F44AE08E0151
:1007D0000F5D1F4F842E912CB12CA12CA5019401EB
:1007E0000E94490FE62FB901CA01EA30F4F4E05D36
:1007F000D801EE938D01232B242B252B79F790E044
:1008000080E0109719F0CD010E94C603A1960FB6A3
:10081000F894DEBF0FBECDBFDF91CF911F910F9136
:10082000BF90AF909F908F900895E95CE1CF4F9279
:100830005F926F927F928F929F92AF92BF92CF9270
:10084000DF92EF92FF920F931F93CF936B017C0186
:10085000742EAC019B010E94440F882399F08DE116
:1008600091E0CF911F910F91FF90EF90DF90CF908B
:10087000BF90AF909F908F907F906F905F904F90C0
:100880000C94C60346015701E894B7F82FEF3FEFE9
:100890004FE75FE7C501B4010E94440F81110DC00D
:1008A0002FEF3FEF4FE75FE7C501B4010E94CF0C88
:1008B00018161CF481E291E0D4CF2FEF3FEF4FE701
:1008C0005FE4C701B6010E943F0F18161CF485E2D1
:1008D00091E0C7CF2FEF3FEF4FE75FECC701B601C5
:1008E0000E94CF0C87FDF3CF20E030E0A901C701C3
:1008F000B6010E94CF0C10E000E087FF0AC06DE255
:100900008FE791E00E945E018C01F7FAF094F7F80E
:10091000F094C0E060E070E080E09FE37C1641F07E
:1009200020E030E040E251E40E94970ECF5FF6CF26
:10093000A70196010E942B0E2B013C010E94100F73
:100940004B015C014AE00E94D3037C01E00EF11EE2
:10095000CC23C1F1C501B4010E94D40C9B01AC01B0
:10096000C301B2010E942A0E4B015C016EE28FE7C7
:1009700091E00E945E01E80EF91EC15018F120E0DE
:1009800030E040E251E4C501B4010E94350D2B0175
:100990003C010E94100F4B01B12CA12C4AE0C50173
:1009A000B4010E94D303E80EF91EC501B4010E94F0
:1009B000D40C9B01AC01C301B2010E942A0E4B0171
:1009C0005C01DBCFC701CF911F910F91FF90EF909A
:1009D000DF90CF90BF90AF909F908F907F906F905F
:1009E0005F904F900895CF92DF92EF92FF920F9316
:1009F0001F936B017C0160E080912E020E94CB016D
:100A000083E090E00197F1F761E080912E020E946F
:100A1000CB0183E290E00197F1F760E080912E0234
:100A20000E94CB0121EC3CE24EE758E3C701B6013E
:100A30000E94350D23E533EB47E05DE30E942B0E6A
:100A40006B017C01609130027091310290E080E096
:100A50000E94D40C20E030E040E250E40E94350DCA
:100A6000A70196010E94970E0E94100F8B019C0116
:100A70008091320290913302A0913402B0913502FC
:100A80000097A105B10539F080179107A207B307B8
:100A900010F48C019D0180912F0290E0FC01E25541
:100AA000FF4F6491FC01E656FF4FE491F0E0EE0F3A
:100AB000FF1FE057FF4F859194913F70462F0E9492
:100AC000520A611571058105910529F06F5F7F4F0D
:100AD0008F4F9F4F9F700E94D40C20E030E040E089
:100AE0005FE30E94350DA70196010E94350D6B0151
:100AF0007C0120E030E0A9010E94CF0C882381F026
:100B0000609130027091310290E080E00E94D40C3C
:100B10009B01AC01C701B6010E943F0F181634F4C7
:100B2000C12CD12C80E8E82E8FEBF82EC701B6013E
:100B30001F910F91FF90EF90DF90CF900895CF928B
:100B4000DF92EF92FF920F931F9383E690E00E9453
:100B50005311EFE9E80FE93108F0B1C00E2E000C97
:100B6000FF0BEB54FA4F0C946B0FCE05DB05EC0535
:100B700004060E0612065F061D065F065F065F0688
:100B80002C065F065F065F06380647065F065F06AF
:100B90005F0650065F065F065F065606CC24C394C8
:100BA000D12CEE24E394F12C01E010E030E020E0C1
:100BB00041E050E069C0CC24C394D12CEE24E394EE
:100BC000F12C01E010E021E030E041E050E070E085
:100BD00060E090E080E00FC0D12CC12CEE24E394C3
:100BE000F12C01E010E021E030E050E040E070E066
:100BF00060E081E090E00E9417021F910F91FF904A
:100C0000EF90DF90CF900895CC24C394D12CF12C99
:100C1000E12C01E010E021E030E019C0CC24C394C5
:100C2000D12CDCCFCC24C394D12CEE24E394F12C32
:100C300001E010E030E020E0D8CFCC24C394D12CE8
:100C4000EE24E394F12C01E010E030E020E041E0FC
:100C500050E061E070E0BDCFD12CC12CEE24E394D4
:100C6000F12C01E010E021E030E050E040E0AFCFB7
:100C7000CC24C394D12CEE24E394F12C01E010E0B9
:100C800030E020E050E040E061E070E0B2CFCC2402
:100C9000C394D12CEE24E394F12C10E000E086CF35
:100CA000D12CC12CEE24E394F12CB3CFCC24C394EB
:100CB000D12CEE24E394F12C10E000E0ACCF1F9196
:100CC0000F91FF90EF90DF90CF900C9462020F9302
:100CD0001F93CF93DF938C01EB01FC018081918105
:100CE0000097E1F06881798161157105A9F0428171
:100CF00053812C813D814217530770F00E9464118B
:100D00008C819D81F801958384831D821C82DF91F3
:100D1000CF911F910F9108950E940D1088819981A4
:100D2000F801918380838A819B81938382838C8164
:100D30009D8195838483198218821B821A82E5CF54
:100D4000CF93DF93EC0188819981009711F00E9485
:100D50000D10198218821D821C821B821A82DF915B
:100D6000CF910895FC0180819181009711F00C943E
:100D70000D1008950F931F93CF93DF93EC0188819B
:100D80009981009759F02A813B812617370730F067
:100D900081E0DF91CF911F910F9108958B016F5FDB
:100DA0007F4F0E949610009759F0998388831B8388
:100DB0000A832C813D81232B59F7FC011082E8CF57
:100DC00080E0E7CFEF92FF920F931F93CF93DF93D3
:100DD000EC01FB01E080F180E114F10411F10481E8
:100DE000158101151105A9F08C819D81080F191F2E
:100DF000B801CE010E94BA06882399F02881398172
:100E00008C819D81B701820F931F0E9464111D8305
:100E10000C83CE01DF91CF911F910F91FF90EF9046
:100E20000895CE010E94A006F4CFEF92FF920F9397
:100E30001F93CF93DF93EC017B018A01BA010E94DB
:100E4000BA0681110BC0CE010E94A006CE01DF912F
:100E5000CF911F910F91FF90EF9008951D830C8308
:100E6000B701888199810E946411F0CFFB01019044
:100E70000020E9F73197AF01461B570B0C9415077B
:100E80000F931F93CF93DF93CDB7DEB762970FB663
:100E9000F894DEBF0FBECDBF8C01CB01F8011182EB
:100EA000108213821282158214824AE0BE016F5FA3
:100EB0007F4F0E949A0CBE016F5F7F4FC8010E9456
:100EC000360762960FB6F894DEBF0FBECDBFDF9136
:100ED000CF911F910F910895FC011182108213820E
:100EE000128215821482FB0101900020E9F73197EC
:100EF000AF01461B570B0C941507CF92DF92EF9270
:100F0000FF920F931F93CF93DF93CDB7DEB7A397D5
:100F10000FB6F894DEBF0FBECDBF6B017C018E0112
:100F2000025E1F4F61E571E0C8010E946C0780916D
:100F30007D0190917E011B8A1A8A1D8A1C8A1F8A54
:100F40001E8A4AE0BE016F5F7F4F0E94A50CBE0162
:100F50006F5F7F4FCE0142960E94360769E271E0D3
:100F6000CE0101960E946C07BE016E5E7F4FCE01DE
:100F700001960E94E206FC014481558160817181E5
:100F80008FE791E00E94BE00CE0101960E94B2065A
:100F9000CE0142960E94B20680E391E00E94C60311
:100FA00080910401882309F4B2C087E391E00E9494
:100FB000C60320E030E048EC52E4C701B6010E94CD
:100FC000CF0C87FF9BC020E030E0A901C701B6012C
:100FD0000E943F0F18160CF082C0C701B6010E9494
:100FE000090FCE0148960E9440071A8219821C827E
:100FF0001B821E821D8280E38A8B1B8ABE016E5E6D
:101000007F4FCE0101960E9436071B8A1A8A1D8ADD
:101010001C8A1F8A1E8A69817A816115710531F0E7
:101020004D815E81CE0142960E941507BE01685E29
:101030007F4FCE0142960E94E2068017910761F031
:10104000FC01608171816115710509F444C044811E
:101050005581C8010E941507CE0142960E94B20632
:10106000CE0101960E94B206CE0148960E94B206B9
:1010700020E030E0A901C701B6010E94CF0C87FF34
:1010800003C0C12CD12C760142E0C701B6010E94F9
:1010900017048BE491E00E94C6038FE491E00E9464
:1010A000C603EAA0FBA0E114F10409F061C01092AC
:1010B0007701C8010E94B206A3960FB6F894DEBF6E
:1010C0000FBECDBFDF91CF911F910F91FF90EF9099
:1010D000DF90CF900895C8010E94A006BDCF67E4BD
:1010E00071E0CE0101960E946C07BE016F5F7F4FD9
:1010F000C8010E946706CE010196B8CFC701B601AC
:101100000E94090FCE0101960E944007EECF82E5B2
:1011100091E00E94C60320E030E048EC52E4C701B1
:10112000B6010E94CF0C87FF20C020E030E040E2F3
:1011300051E4C701B6010E94350D0E94090FCE018E
:1011400001960E944007BE016F5F7F4FC8010E9459
:101150006706CE0101960E94B20642E0C701B601C1
:101160000E94170485E691E096CFC701B601E5CF4E
:10117000F5E0EF16F10418F085E0E82EF12C6E8D05
:101180007F8DA70187E791E00E946B11F701E95875
:10119000FE4F10828ECFCF92DF92EF92FF928FB7E9
:1011A000F894C0906D01D0906E01E0906F01F090C6
:1011B00070018FBF8091680190916901A0916A01CF
:1011C000B0916B01A7019601281B390B4A0B5B0BF1
:1011D000DA01C901893C9105A105B105A0F0809112
:1011E000040191E089278093040110927E011092FE
:1011F0007D0180910401882399F00E948C000E9457
:10120000F3040E947D07C0926801D0926901E092C8
:101210006A01F0926B01FF90EF90DF90CF900895FC
:101220000E948C00EECF80917D0190917E0101960D
:1012300090937E0180937D0180917D0190917E014C
:10124000069729F410927E0110927D0108958091F5
:101250007D0190917E01059769F4809104018823B6
:1012600031F00E948C000E94F3040C947D070E94D0
:101270008C00FBCF08951F920F920FB60F9211248E
:101280002F933F934F935F936F937F938F939F938E
:10129000AF93BF93EF93FF938FE791E00E943C01E0
:1012A000FF91EF91BF91AF919F918F917F916F913E
:1012B0005F914F913F912F910F900FBE0F901F9014
:1012C00018951F920F920FB60F9211242F938F93A0
:1012D0009F93EF93FF93E0918F01F09190018081B4
:1012E000E0919501F091960182FD1BC09081809163
:1012F00098018F5F8F7320919901821741F0E091DF
:101300009801F0E0E158FE4F958F80939801FF918E
:10131000EF919F918F912F910F900FBE0F901F9083
:1013200018958081F4CF1F920F920FB60F9211245F
:101330002F933F938F939F93AF93BF9380916D01B2
:1013400090916E01A0916F01B091700130916C018C
:1013500023E0230F2D3758F50196A11DB11D2093D1
:101360006C0180936D0190936E01A0936F01B09317
:1013700070018091710190917201A0917301B091FF
:1013800074010196A11DB11D8093710190937201AA
:10139000A0937301B0937401BF91AF919F918F910E
:1013A0003F912F910F900FBE0F901F90189526E838
:1013B000230F0296A11DB11DD2CF1F920F920FB61F
:1013C0000F9211242F933F934F935F936F937F93CB
:1013D0008F939F93AF93BF93EF93FF93E09102019D
:1013E000F09103010995FF91EF91BF91AF919F910A
:1013F0008F917F916F915F914F913F912F910F90BE
:101400000FBE0F901F9018951F920F920FB60F925C
:1014100011242F933F934F935F936F937F938F93F9
:101420009F93AF93BF93EF93FF93E0910001F091EF
:1014300001010995FF91EF91BF91AF919F918F911C
:101440007F916F915F914F913F912F910F900FBEC0
:101450000F901F9018951F920F920FB60F921124A4
:101460002F933F934F935F936F937F938F939F93AC
:10147000AF93BF93EF93FF93E0917501F0917601E5
:101480000995FF91EF91BF91AF919F918F917F91BE
:101490006F915F914F913F912F910F900FBE0F90E1
:1014A0001F901895CF92DF92EF92FF920F931F93A8
:1014B000E82FF92F05C0015011092109310961F107
:1014C000908196239417B9F305C0015011092109A1
:1014D000310911F1908196239413F7CFC12CD12CAF
:1014E000E12CF12C0AC08FEFC81AD80AE80AF80AD2
:1014F0000C151D052E053F0579F080818623841784
:1015000091F36C2D7D2D8E2D9F2D1F910F91FF90AE
:10151000EF90DF90CF90089560E070E080E090E081
:101520001F910F91FF90EF90DF90CF900895EFE71C
:10153000F1E01382128288EE93E0A0E0B0E08483B1
:101540009583A683B7838FE091E09183808385ECB8
:1015500090E09587848784EC90E09787868780EC7D
:1015600090E0918B808B81EC90E0938B828B82EC6E
:1015700090E0958B848B86EC90E0978B868B118E18
:10158000128E138E148EEEE2F2E08FE0808380E103
:10159000818380E991E0938382831482158216828D
:1015A000178261E08FE00E94310360E080E10E94D9
:1015B0003103EEE1F2E08BE090E0918380838AE0FA
:1015C00090E09383828388E090E09583848387E032
:1015D00090E09783868386E090E0918780878CE017
:1015E00090E0938782878DE090E09587848789E0FB
:1015F00090E09787868761E08BE00E94310361E08D
:101600008AE00E94310361E088E00E94310361E0DA
:1016100087E00E94310361E086E00E94310361E0CF
:101620008CE00E94310361E08DE00E94310361E0B3
:1016300089E00E94310361E08EE00E9431038EE078
:1016400090E090931D0280931C020895CF93DF9346
:1016500000D000D0CDB7DEB7789484B5826084BD69
:1016600084B5816084BD85B5826085BD85B58160A6
:1016700085BD80916E00816080936E001092810024
:1016800080918100826080938100809181008160DF
:1016900080938100809180008160809380008091A0
:1016A000B10084608093B1008091B000816080932C
:1016B000B00080917A00846080937A0080917A00F3
:1016C000826080937A0080917A00816080937A00B2
:1016D00080917A00806880937A001092C100E09136
:1016E0008F01F091900182E08083E0918B01F09175
:1016F0008C011082E0918D01F0918E018FEC80833E
:1017000010929701E0919301F091940186E080831B
:10171000E0919101F0919201808180618083E0915C
:101720009101F0919201808188608083E091910124
:10173000F0919201808180688083E0919101F09125
:10174000920180818F7D808361E085E00E9431037A
:1017500061E084E00E94310380E180938100109277
:1017600080008DE89BE5909387008093860084E15C
:101770008093810083E199E09093760180937501D5
:1017800081E080936F0062E082E00E9431038BEC85
:1017900098E09093010180930001809169008C7F13
:1017A000826080936900E89A109204010E948C0084
:1017B0000E94F3040E947D074E0185E0880E911C73
:1017C00030E0632E30E0732E80917D0190917E0198
:1017D0009A8389838530910591F101969C838B834F
:1017E000FE0131965F01512C0E940F0361E0809150
:1017F0002C020E94CB0168EE73E080E090E00E9432
:1018000092030E940F0362E370E080E090E00E9488
:101810009203F501819191915F01209104012223AE
:1018200009F457C08230910509F450C06CF4009758
:1018300019F1019709F447C00E940F0325C090E0F9
:1018400080E0CCCF512ED0CF8330910509F45EC01B
:10185000049791F7CC24C394D12CF12CE12C01E016
:1018600010E030E020E041E050E070E060E090E027
:1018700080E00E94170208C080917701082E000CBA
:10188000990BC0970E94800211E01525612F85E019
:101890000E94CB01652D84E00E94CB016AE070E0DC
:1018A00080E090E00E9492038A149B0459F6611430
:1018B000710409F489CF0E942801882309F484CF98
:1018C0000E94000081CF80917801D8CF809179016A
:1018D000D5CF82309105D1F39CF4009769F201973E
:1018E00009F0AACF80917801082E000C990BC097BF
:1018F0000E94800260E080912C020E94CB01C4CF44
:101900008330910531F0049709F096CF0E949F052E
:10191000BBCFCC24C394D12CEE24E394F12C10E063
:1019200000E030E020E050E040E061E070E081E085
:1019300090E09FCFBB274A3031F4992322F4BDE2D7
:10194000909581959F4F0C94A60CBB27FB015527C2
:10195000AA27880F991FAA1FA41710F0A41B83950C
:101960005051B9F7A05DAA3308F0A95DA193009783
:1019700079F7B111B1931192CB010C94BF0CDC013A
:10198000FC01672F71917723E1F7329704C07C91B6
:101990006D9370836291AE17BF07C8F308950E94DC
:1019A000110D08F481E00895E89409C097FB3EF416
:1019B00090958095709561957F4F8F4F9F4F99239C
:1019C000A9F0F92F96E9BB279395F695879577951A
:1019D0006795B795F111F8CFFAF4BB0F11F460FFDA
:1019E0001BC06F5F7F4F8F4F9F4F16C0882311F032
:1019F00096E911C0772321F09EE8872F762F05C046
:101A0000662371F096E8862F70E060E02AF09A95E0
:101A1000660F771F881FDAF7880F9695879597F9D5
:101A20000895990F0008550FAA0BE0E8FEEF16166F
:101A30001706E807F907C0F012161306E407F507C2
:101A400098F0621B730B840B950B39F40A2661F036
:101A5000232B242B252B21F408950A2609F4A140D9
:101A6000A6958FEF811D811D08950E94480D0C944D
:101A7000B90D0E94AB0D38F00E94B20D20F09523F5
:101A800011F00C94A20D0C94A80D11240C94ED0DE2
:101A90000E94CA0D70F3959FC1F3950F50E0551F3A
:101AA000629FF001729FBB27F00DB11D639FAA27B3
:101AB000F00DB11DAA1F649F6627B00DA11D661F02
:101AC000829F2227B00DA11D621F739FB00DA11D23
:101AD000621F839FA00D611D221F749F3327A00DDD
:101AE000611D231F849F600D211D822F762F6A2F79
:101AF00011249F5750409AF0F1F088234AF0EE0FDE
:101B0000FF1FBB1F661F771F881F91505040A9F70A
:101B10009E3F510580F00C94A20D0C94ED0D5F3F9B
:101B2000E4F3983ED4F3869577956795B795F79546
:101B3000E7959F5FC1F7FE2B880F911D96958795BE
:101B400097F9089597F99F6780E870E060E008953D
:101B50009FEF80EC089500240A94161617061806C5
:101B60000906089500240A941216130614060506A1
:101B70000895092E0394000C11F4882352F0BB0F32
:101B800040F4BF2B11F460FF04C06F5F7F4F8F4F95
:101B90009F4F089557FD9058440F551F59F05F3FD0
:101BA00071F04795880F97FB991F61F09F3F79F07F
:101BB00087950895121613061406551FF2CF469501
:101BC000F1DF08C0161617061806991FF1CF869583
:101BD0007105610508940895E894BB276627772767
:101BE000CB0197F908952F923F924F925F926F9297
:101BF0007F928F929F92AF92BF92CF92DF92EF929D
:101C0000FF920F931F93CF93DF93CDB7DEB7CA1B1D
:101C1000DB0B0FB6F894DEBF0FBECDBF09942A8848
:101C2000398848885F846E847D848C849B84AA84F0
:101C3000B984C884DF80EE80FD800C811B81AA817D
:101C4000B981CE0FD11D0FB6F894DEBF0FBECDBF48
:101C5000ED0108955058BB27AA270E94420E0C940C
:101C6000B90D0E94AB0D38F00E94B20D20F039F48E
:101C70009F3F19F426F40C94A80D0EF4E095E7FBB1
:101C80000C94A20DE92F0E94CA0D58F3BA176207EF
:101C900073078407950720F079F4A6F50C94EC0DF2
:101CA0000EF4E0950B2EBA2FA02D0B01B901900177
:101CB0000C01CA01A0011124FF27591B99F0593FBB
:101CC00050F4503E68F11A16F040A22F232F342F03
:101CD0004427585FF3CF469537952795A795F04051
:101CE0005395C9F77EF41F16BA0B620B730B840B66
:101CF000BAF09150A1F0FF0FBB1F661F771F881F1E
:101D0000C2F70EC0BA0F621F731F841F48F4879575
:101D100077956795B795F7959E3F08F0B0CF939567
:101D2000880F08F09927EE0F9795879508950E94E0
:101D3000AB0E0C94B90D0E94B20D58F00E94AB0D81
:101D400040F029F45F3F29F00C94A20D51110C943E
:101D5000ED0D0C94A80D0E94CA0D68F39923B1F300
:101D6000552391F3951B550BBB27AA2762177307C1
:101D7000840738F09F5F5F4F220F331F441FAA1F55
:101D8000A9F335D00E2E3AF0E0E832D09150504011
:101D9000E695001CCAF72BD0FE2F29D0660F771FBF
:101DA000881FBB1F261737074807AB07B0E809F0A5
:101DB000BB0B802DBF01FF2793585F4F3AF09E3F2A
:101DC000510578F00C94A20D0C94ED0D5F3FE4F3F7
:101DD000983ED4F3869577956795B795F7959F5F6D
:101DE000C9F7880F911D9695879597F90895E1E0B9
:101DF000660F771F881FBB1F621773078407BA0718
:101E000020F0621B730B840BBA0BEE1F88F7E09572
:101E100008950E94100F6894B1110C94ED0D08956F
:101E20000E94D20D88F09F5798F0B92F9927B7518B
:101E3000B0F0E1F0660F771F881F991F1AF0BA956E
:101E4000C9F714C0B13091F00E94EC0DB1E00895D3
:101E50000C94EC0D672F782F8827B85F39F0B93FC5
:101E6000CCF3869577956795B395D9F73EF4909521
:101E70008095709561957F4F8F4F9F4F08950E9479
:101E8000110D08F48FEF08950E94110D880B990B26
:101E90000895A1E21A2EAA1BBB1BFD010DC0AA1FAB
:101EA000BB1FEE1FFF1FA217B307E407F50720F0C3
:101EB000A21BB30BE40BF50B661F771F881F991F3E
:101EC0001A9469F760957095809590959B01AC0187
:101ED000BD01CF010895EE0FFF1F0590F491E02D95
:101EE00009940F931F93CF93DF938230910510F4E1
:101EF00082E090E0E0913802F091390230E020E099
:101F0000B0E0A0E0309799F42115310509F44AC0FA
:101F1000281B390B24303105D8F58A819B81611546
:101F2000710589F1FB0193838283FE0111C0408119
:101F300051810281138148175907E0F0481759076A
:101F400099F4109761F012960C93129713961C93C4
:101F50003296CF01DF91CF911F910F910895009399
:101F6000380210933902F4CF2115310551F0421790
:101F7000530738F0A901DB019A01BD01DF01F80127
:101F8000C1CFEF01F9CF9093390280933802CDCFC2
:101F9000FE01E20FF31F819391932250310939839F
:101FA0002883D7CF2091360230913702232B41F47A
:101FB00020910701309108013093370220933602B7
:101FC00020910501309106012115310541F42DB70D
:101FD0003EB74091090150910A01241B350BE09155
:101FE0003602F0913702E217F307A0F42E1B3F0BE5
:101FF0002817390778F0AC014E5F5F4F241735077B
:1020000048F04E0F5F1F5093370240933602819382
:1020100091939FCFF0E0E0E09CCFCF93DF930097C8
:10202000E9F0FC01329713821282A0913802B0913C
:102030003902ED0130E020E01097A1F420813181D8
:10204000820F931F209136023091370228173907EB
:1020500009F061C0F0933702E0933602DF91CF912F
:102060000895EA01CE17DF07E8F54A815B819E01FA
:1020700041155105B1F7E901FB83EA834991599173
:10208000C40FD51FEC17FD0761F480819181029682
:10209000840F951FE90199838883828193819B83B3
:1020A0008A83F0E0E0E012968D919C91139700975F
:1020B000B9F52D913C911197CD010296820F931F96
:1020C00020913602309137022817390739F63097B8
:1020D00051F51092390210923802B0933702A09352
:1020E0003602BCCFD383C28340815181840F951FB8
:1020F000C817D90761F44E5F5F4F88819981480FF7
:10210000591F518340838A819B8193838283211548
:10211000310509F0B0CFF0933902E09338029ECF39
:10212000FD01DC01C0CF13821282D7CFB0E0A0E066
:10213000ECE9F0E10C94F50D8C01009751F4CB0122
:102140000E94710F8C01C801CDB7DEB7E0E10C949D
:10215000110EFC01E60FF71F9C0122503109E21716
:10216000F30708F49DC0D901CD91DC911197C617F2
:10217000D70798F0C530D10530F3CE010497861704
:10218000970708F3C61BD70B2297C193D1936D9382
:102190007C93CF010E940D10D6CF5B01AC1ABD0A13
:1021A0004C018C0E9D1EA0913802B0913902512C29
:1021B000412CF12CE12C109731F580913602909151
:1021C00037028815990509F05CC04616570608F0D5
:1021D00058C08091050190910601009741F48DB798
:1021E0009EB74091090150910A01841B950BE81795
:1021F000F90708F055C0F0933702E0933602F90171
:1022000071836083A0CF8D919C91119712966C90F1
:10221000129713967C901397A815B90559F56C0180
:1022200042E0C40ED11CCA14DB0420F1AC014A19EF
:102230005B09DA011296159780F0628273825183EE
:102240004083D9016D937C93E114F10471F0D701BF
:102250001396FC93EE93129776CF22968C0F9D1FC8
:10226000F90191838083F301EFCFF0933902E0937A
:10227000380269CF4816590608F42C017D01D301B4
:102280009ACFCB010E94710F7C01009749F0AE01FB
:10229000B8010E945B11C8010E940D10870153CF45
:1022A00010E000E050CF9111089581548A5108F454
:1022B000805E855A0895FB01DC0102C001900D92F9
:1022C00041505040D8F70895FB01DC0101900D9278
:1022D0000020E1F70895FB01DC014150504048F037
:1022E00001900D920020C9F701C01D92415050404D
:1022F000E0F70895F894FFCFC503C5030100003A45
:10230000028000000000005E01BE00EB00AB011C7B
:1023100001FA000E016E616E00696E66006F7666EE
:1023200000537465703A20004D6F64653A20006474
:10233000697374616E6365206D6F64652C20003075
:1023400030300020636D000D0A0074656D70657299
:102350006174757265206D6F64652C2000204300E8
:107E0000112484B714BE81FFF0D085E080938100F7
:107E100082E08093C00088E18093C10086E0809377
:107E2000C20080E18093C4008EE0C9D0259A86E02C
:107E300020E33CEF91E0309385002093840096BBD3
:107E4000B09BFECF1D9AA8958150A9F7CC24DD24C4
:107E500088248394B5E0AB2EA1E19A2EF3E0BF2EE7
:107E6000A2D0813461F49FD0082FAFD0023811F036
:107E7000013811F484E001C083E08DD089C08234E0
:107E800011F484E103C0853419F485E0A6D080C0E4
:107E9000853579F488D0E82EFF2485D0082F10E0AE
:107EA000102F00270E291F29000F111F8ED06801E7
:107EB0006FC0863521F484E090D080E0DECF843638
:107EC00009F040C070D06FD0082F6DD080E0C81688
:107ED00080E7D80618F4F601B7BEE895C0E0D1E017
:107EE00062D089930C17E1F7F0E0CF16F0E7DF06D8
:107EF00018F0F601B7BEE89568D007B600FCFDCFD4
:107F0000A601A0E0B1E02C9130E011968C91119780
:107F100090E0982F8827822B932B1296FA010C0160
:107F200087BEE89511244E5F5F4FF1E0A038BF0790
:107F300051F7F601A7BEE89507B600FCFDCF97BE46
:107F4000E89526C08437B1F42ED02DD0F82E2BD052
:107F50003CD0F601EF2C8F010F5F1F4F84911BD097
:107F6000EA94F801C1F70894C11CD11CFA94CF0C13
:107F7000D11C0EC0853739F428D08EE10CD085E9AC
:107F80000AD08FE07ACF813511F488E018D01DD067
:107F900080E101D065CF982F8091C00085FFFCCF94
:107FA0009093C60008958091C00087FFFCCF809118
:107FB000C00084FD01C0A8958091C6000895E0E648
:107FC000F0E098E1908380830895EDDF803219F02E
:107FD00088E0F5DFFFCF84E1DECF1F93182FE3DFCA
:107FE0001150E9F7F2DF1F91089580E0E8DFEE27F6
:047FF000FF270994CA
:027FFE00040479
:00000001FF
