:020000040000FA
:100000000C9462000C9438090C9411090C948A0029
:100010000C948A000C948A000C948A000C948A0038
:100020000C948A000C948A000C948A000C948A0028
:100030000C948A000C945F090C948A000C948A003A
:100040000C94C7080C948A000C9495080C946F08C3
:100050000C948A000C948A000C948A000C948A00F8
:100060000C948A000C948A000000000024002700F1
:100070002A0000000000250028002B0000000008D6
:10008000000201000003040700000000000000005F
:1000900000000000230026002900040404040404D6
:1000A0000404020202020202030303030303010227
:1000B00004081020408001020408102001020408F6
:1000C0001020CB0911241FBECFEFD8E0DEBFCDBF7B
:1000D00022E0A2E6B1E001C01D92A433B207E1F72D
:1000E00011E0A0E0B1E0E6EAF1E202C005900D9275
:1000F000A236B107D9F710E0C2E6D0E004C02197DC
:10010000FE010E94C20EC136D107C9F70E945A0AE9
:100110000C94D1100C940000809116028E3008F0DF
:100120008E508770806480937C0080917A00806418
:1001300080937A0080917A0086FDFCCF80917800D0
:1001400060917900762F682F072E000C880B990B91
:100150000E942D0C20E030E040EA50E40E948C0C1C
:1001600020E030EC4FE754E40E94EE0D2AE037ED3A
:1001700043E25CE30E94EE0D0895AF92BF92CF92EE
:10018000DF92EF92FF920F931F93CF93DF936C0157
:100190007B018B01040F151FEB015E01AE18BF0838
:1001A000C017D10759F06991D601ED91FC910190EA
:1001B000F081E02DC6010995892B79F7C501DF9102
:1001C000CF911F910F91FF90EF90DF90CF90BF9054
:1001D000AF900895FC01538D448D252F30E0842F7E
:1001E00090E0821B930B541710F0CF96089501975F
:1001F0000895FC01918D828D981761F0A28DAE0F4C
:10020000BF2FB11D5D968C91928D9F5F9F73928FD2
:1002100090E008958FEF9FEF0895FC01918D828DFE
:10022000981731F0828DE80FF11D858D90E00895CB
:100230008FEF9FEF0895FC01918D228D892F90E023
:10024000805C9F4F821B91098F739927089589E7DE
:1002500091E00E941B0121E0892B09F420E0822F0C
:10026000089580E090E0892B29F00E9427018111F8
:100270000C9400000895FC01A48DA80FB92FB11DA6
:10028000A35ABF4F2C91848D90E001968F739927CC
:10029000848FA689B7892C93A089B1898C918370AA
:1002A00080648C93938D848D981306C00288F389A3
:1002B000E02D80818F7D80830895EF92FF920F93D0
:1002C0001F93CF93DF93EC0181E0888F9B8D8C8D02
:1002D00098131AC0E889F989808185FF15C09FB7F6
:1002E000F894EE89FF896083E889F98980818370B9
:1002F000806480839FBF81E090E0DF91CF911F9168
:100300000F91FF90EF900895F62E0B8D10E00F5F88
:100310001F4F0F731127E02E8C8D8E110CC00FB65E
:1003200007FCFACFE889F989808185FFF5CFCE01F6
:100330000E943B01F1CFEB8DEC0FFD2FF11DE35A35
:10034000FF4FF0829FB7F8940B8FEA89FB89808179
:100350008062CFCFCF93DF93EC01888D8823B9F0F3
:10036000AA89BB89E889F9898C9185FD03C08081C0
:1003700086FD0DC00FB607FCF7CF8C9185FFF2CF3D
:10038000808185FFEDCFCE010E943B01E9CFDF9157
:10039000CF91089590E0FC01E458FF4F2491FC01B7
:1003A000E255FF4F3491FC01E656FF4FE491EE23F6
:1003B000C9F0222339F0233001F1A8F4213019F1DA
:1003C000223029F1F0E0EE0FFF1FEE58FF4FA5910C
:1003D000B4918FB7F894EC91611126C030953E230B
:1003E0003C938FBF08952730A9F02830C9F02430FE
:1003F00049F7809180008F7D03C0809180008F77C6
:1004000080938000DFCF84B58F7784BDDBCF84B548
:100410008F7DFBCF8091B0008F778093B000D2CFDB
:100420008091B0008F7DF9CF3E2BDACF6F927F9213
:100430008F929F92AF92BF92CF92DF92EF92FF92F4
:100440000F931F93CF93DF935B014A01390121E0A2
:100450008227C8E1D2E0682F88810E94CA01B501D5
:1004600081E068278A810E94CA01B40121E06227E5
:100470008C810E94CA01B30181E068278E810E94AD
:10048000CA01B80121E0622788850E94CA01B7012C
:1004900081E068278A850E94CA01B60121E06227AF
:1004A0008C85DF91CF911F910F91FF90EF90DF909E
:1004B000CF90BF90AF909F908F907F906F900C9453
:1004C000CA01CF92DF92EF92FF920F931F93CC2439
:1004D000C394D12CF12CE12C10E000E030E020E0BE
:1004E00050E040E070E060E090E080E00E941602A2
:1004F0001F910F91FF90EF90DF90CF900895CF92D2
:10050000DF92EF92FF920F931F938A30910508F0CC
:100510007DC0FC01E257FD4F0C94C20E9802A2026E
:10052000B902C702CF02D602E702F002FB02FF02C5
:10053000D12CC12CEE24E394F12C01E010E021E059
:1005400030E056C0D12CC12CF12CE12C10E000E0A1
:1005500030E020E041E050E061E070E090E080E0D9
:100560000E9416021F910F91FF90EF90DF90CF90A5
:100570000895CC24C394D12CF12CE12C01E010E09F
:1005800021E030E050E040E061E070E01DC0CC24AC
:10059000C394D12CF12CE12C10E000E0D0CFCC247E
:1005A000C394D12CEE24E394F12CD0CFCC24C3946B
:1005B000D12CEE24E394F12C10E000E021E030E0B7
:1005C00041E050E070E060E081E090E0C9CFCC24F1
:1005D000C394D12CEE24E394F12C01E010E0EECF93
:1005E000D12CC12CF12CE12C10E000E030E020E017
:1005F00041E050E0C9CFCC24C394D12C9BCFCC2474
:10060000C394D12CEE24E394F12CC6CF1F910F910B
:10061000FF90EF90DF90CF900C946102CF92DF9229
:10062000EF92FF920F931F9361E0809126020E9448
:10063000CA01D12CC12CF12CE12C10E000E030E0FB
:1006400020E050E040E070E060E090E080E00E9458
:1006500016021F910F91FF90EF90DF90CF900895B9
:10066000CF93DF9390E0FC01E255FF4F2491865633
:100670009F4FFC0184918823C9F090E0880F991F57
:10068000FC01E859FF4FA591B491FC01EE58FF4FD2
:10069000C591D49161110DC09FB7F8948C912095AC
:1006A00082238C938881282328839FBFDF91CF9159
:1006B0000895623051F49FB7F8943C91822F809551
:1006C00083238C93E8812E2BEFCF8FB7F894EC9196
:1006D0002E2B2C938FBFEACF3FB7F89480916B01FC
:1006E00090916C01A0916D01B0916E0126B5A89B0F
:1006F00005C02F3F19F00196A11DB11D3FBFBA2FB4
:10070000A92F982F8827BC01CD01620F711D811D73
:10071000911D42E0660F771F881F991F4A95D1F7F8
:1007200008950895FC0101900020E9F73197AF0189
:10073000481B590BBC0189E791E00C94BD008F92D6
:100740009F92AF92BF920F931F93CF93DF93CDB73A
:10075000DEB7A1970FB6F894DEBF0FBECDBF19A2CA
:10076000423008F44AE08E010F5D1F4F842E912C19
:10077000B12CA12CA50194010E94A00EE62FB90175
:10078000CA01EA30F4F4E05DD801EE938D01232B29
:10079000242B252B79F790E080E0109719F0CD01FC
:1007A0000E949203A1960FB6F894DEBF0FBECDBF94
:1007B000DF91CF911F910F91BF90AF909F908F903D
:1007C0000895E95CE1CF4F925F926F927F928F9292
:1007D0009F92AF92BF92CF92DF92EF92FF920F93D0
:1007E0001F93CF936B017C01742EAC019B010E947F
:1007F0009B0E882399F08DE191E0CF911F910F918D
:10080000FF90EF90DF90CF90BF90AF909F908F9030
:100810007F906F905F904F900C9492034601570128
:10082000E894B7F82FEF3FEF4FE75FE7C501B4015A
:100830000E949B0E81110DC02FEF3FEF4FE75FE746
:10084000C501B4010E94260C18161CF481E291E047
:10085000D4CF2FEF3FEF4FE75FE4C701B6010E940F
:10086000960E18161CF485E291E0C7CF2FEF3FEFEC
:100870004FE75FECC701B6010E94260C87FDF3CF5E
:1008800020E030E0A901C701B6010E94260C10E06B
:1008900000E087FF0AC06DE289E791E00E945D01F8
:1008A0008C01F7FAF094F7F8F094C0E060E070E0A3
:1008B00080E09FE37C1641F020E030E040E251E42C
:1008C0000E94EE0DCF5FF6CFA70196010E94820D28
:1008D0002B013C010E94670E4B015C014AE00E9423
:1008E0009F037C01E00EF11ECC23C1F1C501B401D0
:1008F0000E942B0C9B01AC01C301B2010E94810D2F
:100900004B015C016EE289E791E00E945D01E80E17
:10091000F91EC15018F120E030E040E251E4C50179
:10092000B4010E948C0C2B013C010E94670E4B010C
:10093000B12CA12C4AE0C501B4010E949F03E80E2E
:10094000F91EC501B4010E942B0C9B01AC01C3012F
:10095000B2010E94810D4B015C01DBCFC701CF9139
:100960001F910F91FF90EF90DF90CF90BF90AF90CD
:100970009F908F907F906F905F904F900895CF924F
:10098000DF92EF92FF920F931F936B017C0160E067
:10099000809128020E94CA0183E090E00197F1F75C
:1009A00061E0809128020E94CA0183E290E00197F1
:1009B000F1F760E0809128020E94CA0121EC3CE23C
:1009C0004EE758E3C701B6010E948C0C23E533EBD8
:1009D00047E05DE30E94820D6B017C0160912A0279
:1009E00070912B0290E080E00E942B0C20E030E020
:1009F00040E250E40E948C0CA70196010E94EE0D8B
:100A00000E94670E8B019C0180912C0290912D0217
:100A1000A0912E02B0912F020097A105B10539F0E7
:100A200080179107A207B30710F48C019D018091F4
:100A3000290290E0FC01E255FF4F6491FC01E6566B
:100A4000FF4FE491F0E0EE0FFF1FE057FF4F85915D
:100A500094913F70462F0E948609611571058105AA
:100A6000910529F06F5F7F4F8F4F9F4F9F700E94BE
:100A70002B0C20E030E040E05FE30E948C0CA701EB
:100A800096010E948C0C6B017C0120E030E0A901F2
:100A90000E94260C882381F060912A0270912B021B
:100AA00090E080E00E942B0C9B01AC01C701B601D5
:100AB0000E94960E181634F4C12CD12C80E8E82E32
:100AC0008FEBF82EC701B6011F910F91FF90EF90A9
:100AD000DF90CF900895CF92DF92EF92FF920F9325
:100AE0001F9383E690E00E94AA10EFE9E80FE93136
:100AF00008F0B1C00E2E000CFF0BEF57FA4F0C940C
:100B0000C20E9A05A705B805D005DA05DE052B0645
:100B1000E9052B062B062B06F8052B062B062B06C4
:100B2000040613062B062B062B061C062B062B068B
:100B30002B062206CC24C394D12CEE24E394F12C72
:100B400001E010E030E020E041E050E069C0CC245A
:100B5000C394D12CEE24E394F12C01E010E021E0C9
:100B600030E041E050E070E060E090E080E00FC0F5
:100B7000D12CC12CEE24E394F12C01E010E021E013
:100B800030E050E040E070E060E081E090E00E9402
:100B900016021F910F91FF90EF90DF90CF90089574
:100BA000CC24C394D12CF12CE12C01E010E021E005
:100BB00030E019C0CC24C394D12CDCCFCC24C39416
:100BC000D12CEE24E394F12C01E010E030E020E0A1
:100BD000D8CFCC24C394D12CEE24E394F12C01E0A3
:100BE00010E030E020E041E050E061E070E0BDCF97
:100BF000D12CC12CEE24E394F12C01E010E021E093
:100C000030E050E040E0AFCFCC24C394D12CEE24B0
:100C1000E394F12C01E010E030E020E050E040E00F
:100C200061E070E0B2CFCC24C394D12CEE24E394E5
:100C3000F12C10E000E086CFD12CC12CEE24E394FF
:100C4000F12CB3CFCC24C394D12CEE24E394F12C1B
:100C500010E000E0ACCF1F910F91FF90EF90DF907C
:100C6000CF900C946102FC0180819181009711F07A
:100C70000C94640F08950F931F93CF93DF93EC01AF
:100C800088819981009759F02A813B81261737077F
:100C900030F081E0DF91CF911F910F9108958B018A
:100CA0006F5F7F4F0E94ED0F009759F09983888303
:100CB0001B830A832C813D81232B59F7FC01108271
:100CC000E8CF80E0E7CFEF92FF920F931F93CF938F
:100CD000DF936115710541F480E0DF91CF911F91A1
:100CE0000F91FF90EF90089541155105B1F07B01F0
:100CF000EC010C811D81040F151FB8010E943B06F9
:100D0000882351F3288139818C819D81B701820F1D
:100D1000931F0E94BB101D830C8381E0DECFEF92F6
:100D2000FF920F931F93CF93DF93EC017B018A0116
:100D3000BA010E943B0628813981811114C0211516
:100D4000310519F0C9010E94640F198218821D82B1
:100D50001C821B821A82CE01DF91CF911F910F91CD
:100D6000FF90EF9008951D830C83B701C9010E9485
:100D7000BB10F1CF8F929F92AF92BF92CF92DF9232
:100D8000EF92FF920F931F93CF93DF93CDB7DEB710
:100D90006E970FB6F894DEBF0FBECDBF162F072F8C
:100DA000F82EE92E1A8E198E1C8E1B8E1E8E1D8E0D
:100DB00050E040E06AE471E0CE0149960E948F065F
:100DC00089E291E00E94920320E030E0A901612FC6
:100DD000702F8F2D9E2D0E94260C9E012F5F3F4F5E
:100DE000690187FF3FC01A8219821C821B821E8202
:100DF0001D8243E050E060E371E0C9010E948F066C
:100E00000D811E8101151105E1F410927101C601D9
:100E10000E943306CE0149960E9433066E960FB6A5
:100E2000F894DEBF0FBECDBFDF91CF911F910F9120
:100E3000FF90EF90DF90CF90BF90AF909F908F90FA
:100E400008950530110510F005E010E069817A8100
:100E5000A80181E791E00E94C210F801EF58FE4F0F
:100E60001082D5CF80910401882309F46EC084E3F9
:100E700091E00E94920320E030E048EC52E4612FC0
:100E8000702F8F2D9E2D0E94260C87FF1CC020E006
:100E900030E040E251E4612F702F8F2D9E2D0E9493
:100EA000260C62E371E087FF02C061E371E0FB01A1
:100EB00001900020E9F73197AF01461B570BCE0197
:100EC00049960E94630642E0612F702F8F2D9E2D60
:100ED0000E94E30384E491E00E94920388E491E09D
:100EE0000E9492031C8A1B8A1E8A1D8A188E1F8AE2
:100EF000612F702F8F2D9E2D0E94600ECB014AE036
:100F0000B6010E94F10BF60101900020E9F731973C
:100F1000AF014C195D09B601CE0143960E948F06C0
:100F20004F89588D6B897C89CE0149960E94630652
:100F3000CE0143960E9433060D8D1E8D01151105BD
:100F400009F04CC01092710165CF8BE491E00E94D2
:100F5000920320E030E048EC52E4612F702F8F2D97
:100F60009E2D0E94260C87FF34C020E030E040E236
:100F700051E4612F702F8F2D9E2D0E94260C87FF2C
:100F800008C041E050E062E371E0CE0149960E9462
:100F9000630620E030E040E251E4612F702F8F2D96
:100FA0009E2D0E948C0C4B015C0142E0612F702F42
:100FB0008F2D9E2D0E94E3038EE591E00E94920307
:100FC00088E491E00E949203182D092DFA2CEB2C55
:100FD00089CF812E902EAF2CBE2CE7CF0530110586
:100FE00010F005E010E0698D7A8DA80181E791E0AD
:100FF0000E94C210F801EF58FE4F10820BCFCF9223
:10100000DF92EF92FF928FB7F894C0906701D09073
:101010006801E0906901F0906A018FBF80916201E0
:1010200090916301A0916401B0916501A7019601BF
:10103000281B390B4A0B5B0BDA01C901893C91056E
:10104000A105B105A0F08091040191E0892780936A
:101050000401109278011092770180910401882395
:1010600099F00E948C000E94BF040E94BA06C092B0
:101070006201D0926301E0926401F0926501FF90F9
:10108000EF90DF90CF9008950E948C00EECF80917A
:101090007701909178010196909378018093770180
:1010A0008091770190917801069729F41092780148
:1010B00010927701089580917701909178010597BA
:1010C00069F480910401882331F00E948C000E9411
:1010D000BF040C94BA060E948C00FBCF08951F92A7
:1010E0000F920FB60F9211242F933F934F935F935C
:1010F0006F937F938F939F93AF93BF93EF93FF93E0
:1011000089E791E00E943B01FF91EF91BF91AF9180
:101110009F918F917F916F915F914F913F912F910F
:101120000F900FBE0F901F9018951F920F920FB641
:101130000F9211242F938F939F93EF93FF93E0913E
:101140008901F0918A018081E0918F01F0919001F5
:1011500082FD1BC09081809192018F5F8F732091DF
:101160009301821741F0E0919201F0E0E758FE4FC1
:10117000958F80939201FF91EF919F918F912F9185
:101180000F900FBE0F901F9018958081F4CF1F9283
:101190000F920FB60F9211242F933F938F939F932B
:1011A000AF93BF938091670190916801A09169010D
:1011B000B0916A013091660123E0230F2D3758F575
:1011C0000196A11DB11D2093660180936701909344
:1011D0006801A0936901B0936A0180916B019091BD
:1011E0006C01A0916D01B0916E010196A11DB11D20
:1011F00080936B0190936C01A0936D01B0936E018D
:10120000BF91AF919F918F913F912F910F900FBE02
:101210000F901F90189526E8230F0296A11DB11D6F
:10122000D2CF1F920F920FB60F9211242F933F939C
:101230004F935F936F937F938F939F93AF93BF93DE
:10124000EF93FF93E0910201F09103010995FF9163
:10125000EF91BF91AF919F918F917F916F915F912E
:101260004F913F912F910F900FBE0F901F901895A7
:101270001F920F920FB60F9211242F933F934F930B
:101280005F936F937F938F939F93AF93BF93EF93EE
:10129000FF93E0910001F09101010995FF91EF9119
:1012A000BF91AF919F918F917F916F915F914F917E
:1012B0003F912F910F900FBE0F901F9018951F9286
:1012C0000F920FB60F9211242F933F934F935F937A
:1012D0006F937F938F939F93AF93BF93EF93FF93FE
:1012E000E0916F01F09170010995FF91EF91BF912D
:1012F000AF919F918F917F916F915F914F913F91AE
:101300002F910F900FBE0F901F901895CF92DF92E4
:10131000EF92FF920F931F93E82FF92F05C0015012
:1013200011092109310961F1908196239417B9F3CC
:1013300005C0015011092109310911F1908196234D
:101340009413F7CFC12CD12CE12CF12C0AC08FEFD4
:10135000C81AD80AE80AF80A0C151D052E053F051B
:1013600079F080818623841791F36C2D7D2D8E2D4D
:101370009F2D1F910F91FF90EF90DF90CF900895D8
:1013800060E070E080E090E01F910F91FF90EF909F
:10139000DF90CF900895E9E7F1E01382128288EEA2
:1013A00093E0A0E0B0E084839583A683B7838FE0C9
:1013B00091E09183808385EC90E09587848784EC2D
:1013C00090E09787868780EC90E0918B808B81EC12
:1013D00090E0938B828B82EC90E0958B848B86ECF3
:1013E00090E0978B868B118E128E138E148EE8E20E
:1013F000F2E08FE0808380E1818380E991E0938354
:101400008283148215821682178261E08FE00E9427
:10141000300360E080E10E943003E8E1F2E08CE01C
:1014200090E0918380838DE090E09383828388E0D5
:1014300090E09583848387E090E09783868386E0BD
:1014400090E0918780878BE090E0938782878AE0A5
:1014500090E09587848789E090E09787868761E0B0
:101460008CE00E94300361E08DE00E94300361E077
:1014700088E00E94300361E087E00E94300361E071
:1014800086E00E94300361E08BE00E94300361E05F
:101490008AE00E94300361E089E00E94300361E04D
:1014A0008EE00E9430038EE090E0909317028093CC
:1014B00016020895CF93DF9300D000D0CDB7DEB7EA
:1014C000789484B5826084BD84B5816084BD85B51F
:1014D000826085BD85B5816085BD80916E0081602B
:1014E00080936E00109281008091810082608093D1
:1014F00081008091810081608093810080918000D3
:101500008160809380008091B10084608093B100FD
:101510008091B00081608093B00080917A008460F7
:1015200080937A0080917A00826080937A00809123
:101530007A00816080937A0080917A00806880933D
:101540007A001092C100E0918901F0918A0182E055
:101550008083E0918501F09186011082E0918701FE
:10156000F09188018FEC808310929101E0918D01C0
:10157000F0918E0186E08083E0918B01F0918C01E7
:10158000808180618083E0918B01F0918C0180816A
:1015900088608083E0918B01F0918C01808180686C
:1015A0008083E0918B01F0918C0180818F7D80831D
:1015B00061E085E00E94300361E084E00E94300336
:1015C00080E180938100109280008DE89BE59093EC
:1015D00087008093860084E18093810087E498E00F
:1015E0009093700180936F0181E080936F0062E0BF
:1015F00082E00E9430038FEF97E090930101809387
:101600000001809169008C7F826080936900E89A74
:10161000109204010E948C000E94BF040E94BA062E
:1016200061E0809126020E94CA014E0125E0820EEF
:10163000911C40E0642E40E0742E809177019091DF
:1016400078019A8389838530910561F101969C83A5
:101650008B83CE0101965C01512C60E085E00E94F5
:10166000CA0160E084E00E94CA01F5010191119174
:101670005F0161E0809126020E94CA01809104010D
:10168000882309F479C00230110509F472C07CF492
:101690000115110529F10130110509F467C00E94F7
:1016A0000E0326C090E080E0D2CF512ED6CF03307B
:1016B000110509F482C00430110589F7CC24C394C4
:1016C000D12CF12CE12C01E010E030E020E041E0F1
:1016D00050E070E060E090E080E00E94160208C0F8
:1016E00080917101082E000C990BC0970E947F0217
:1016F00011E01525612F85E00E94CA01652D84E067
:101700000E94CA010E946C031B012C018AE0C82EB2
:10171000D12CE12CF12C0E946C036219730984090D
:101720009509683E734081059105A8F3F1E0CF1A51
:10173000D108E108F10828EE220E23E0321E411CF8
:10174000511CC114D104E104F10429F7A814B9040F
:1017500009F0ABCF6114710409F46FCF0E94270127
:10176000882309F46ACF0E94000067CF809172013C
:10177000B9CF80917301B6CF02301105D1F3B4F423
:101780000115110509F4ACCF0130110509F087CF1F
:1017900080917201082E000C990BC0970E947F0265
:1017A00060E0809126020E94CA01A2CF0330110599
:1017B00039F00430110509F072CF0E946B0598CF03
:1017C000CC24C394D12CEE24E394F12C10E000E05F
:1017D00030E020E050E040E061E070E081E090E047
:1017E0007CCFBB274A3031F4992322F4BDE2909597
:1017F00081959F4F0C94FD0BBB27FB015527AA2712
:10180000880F991FAA1FA41710F0A41B839550518D
:10181000B9F7A05DAA3308F0A95DA193009779F705
:10182000B111B1931192CB010C94160CDC01FC01A7
:10183000672F71917723E1F7329704C07C916D9304
:1018400070836291AE17BF07C8F308950E94680CB9
:1018500008F481E00895E89409C097FB3EF4909560
:101860008095709561957F4F8F4F9F4F9923A9F079
:10187000F92F96E9BB279395F69587957795679508
:10188000B795F111F8CFFAF4BB0F11F460FF1BC04C
:101890006F5F7F4F8F4F9F4F16C0882311F096E9DF
:1018A00011C0772321F09EE8872F762F05C066238D
:1018B00071F096E8862F70E060E02AF09A95660F46
:1018C000771F881FDAF7880F9695879597F90895FF
:1018D000990F0008550FAA0BE0E8FEEF1616170641
:1018E000E807F907C0F012161306E407F50798F0A9
:1018F000621B730B840B950B39F40A2661F0232BC2
:10190000242B252B21F408950A2609F4A140A6953D
:101910008FEF811D811D08950E949F0C0C94100D66
:101920000E94020D38F00E94090D20F0952311F05D
:101930000C94F90C0C94FF0C11240C94440D0E948F
:10194000210D70F3959FC1F3950F50E0551F629FD5
:10195000F001729FBB27F00DB11D639FAA27F00D08
:10196000B11DAA1F649F6627B00DA11D661F829F2F
:101970002227B00DA11D621F739FB00DA11D621F14
:10198000839FA00D611D221F749F3327A00D611D31
:10199000231F849F600D211D822F762F6A2F112413
:1019A0009F5750409AF0F1F088234AF0EE0FFF1F46
:1019B000BB1F661F771F881F91505040A9F79E3F9D
:1019C000510580F00C94F90C0C94440D5F3FE4F346
:1019D000983ED4F3869577956795B795F795E795F3
:1019E0009F5FC1F7FE2B880F911D9695879597F9FC
:1019F000089597F99F6780E870E060E008959FEF91
:101A000080EC089500240A94161617061806090695
:101A1000089500240A941216130614060506089564
:101A2000092E0394000C11F4882352F0BB0F40F4EC
:101A3000BF2B11F460FF04C06F5F7F4F8F4F9F4F2C
:101A4000089557FD9058440F551F59F05F3F71F0AE
:101A50004795880F97FB991F61F09F3F79F0879515
:101A60000895121613061406551FF2CF4695F1DF9E
:101A700008C0161617061806991FF1CF869571052E
:101A8000610508940895E894BB2766277727CB0162
:101A900097F908952F923F924F925F926F927F92A3
:101AA0008F929F92AF92BF92CF92DF92EF92FF926E
:101AB0000F931F93CF93DF93CDB7DEB7CA1BDB0B1A
:101AC0000FB6F894DEBF0FBECDBF09942A883988BF
:101AD00048885F846E847D848C849B84AA84B984C6
:101AE000C884DF80EE80FD800C811B81AA81B981D2
:101AF000CE0FD11D0FB6F894DEBF0FBECDBFED01E6
:101B000008955058BB27AA270E94990D0C94100DD8
:101B10000E94020D38F00E94090D20F039F49F3F19
:101B200019F426F40C94FF0C0EF4E095E7FB0C94EA
:101B3000F90CE92F0E94210D58F3BA1762077307B9
:101B40008407950720F079F4A6F50C94430D0EF464
:101B5000E0950B2EBA2FA02D0B01B90190010C01BD
:101B6000CA01A0011124FF27591B99F0593F50F4D5
:101B7000503E68F11A16F040A22F232F342F44272D
:101B8000585FF3CF469537952795A795F040539525
:101B9000C9F77EF41F16BA0B620B730B840BBAF0F5
:101BA0009150A1F0FF0FBB1F661F771F881FC2F760
:101BB0000EC0BA0F621F731F841F48F48795779574
:101BC0006795B795F7959E3F08F0B0CF9395880F2E
:101BD00008F09927EE0F9795879508950E94020EB9
:101BE0000C94100D0E94090D58F00E94020D40F057
:101BF00029F45F3F29F00C94F90C51110C94440D19
:101C00000C94FF0C0E94210D68F39923B1F3552326
:101C100091F3951B550BBB27AA27621773078407FF
:101C200038F09F5F5F4F220F331F441FAA1FA9F395
:101C300035D00E2E3AF0E0E832D091505040E69583
:101C4000001CCAF72BD0FE2F29D0660F771F881FE4
:101C5000BB1F261737074807AB07B0E809F0BB0BD7
:101C6000802DBF01FF2793585F4F3AF09E3F5105EB
:101C700078F00C94F90C0C94440D5F3FE4F3983E1B
:101C8000D4F3869577956795B795F7959F5FC9F7D4
:101C9000880F911D9695879597F90895E1E0660F55
:101CA000771F881FBB1F621773078407BA0720F0CE
:101CB000621B730B840BBA0BEE1F88F7E095089537
:101CC0000E94670E6894B1110C94440D08950E940F
:101CD000290D88F09F5798F0B92F9927B751B0F088
:101CE000E1F0660F771F881F991F1AF0BA95C9F7A0
:101CF00014C0B13091F00E94430DB1E008950C94EE
:101D0000430D672F782F8827B85F39F0B93FCCF3A0
:101D1000869577956795B395D9F73EF4909580951C
:101D2000709561957F4F8F4F9F4F08950E94680C6B
:101D300008F48FEF08950E94680C880B990B0895A2
:101D4000A1E21A2EAA1BBB1BFD010DC0AA1FBB1FBF
:101D5000EE1FFF1FA217B307E407F50720F0A21B31
:101D6000B30BE40BF50B661F771F881F991F1A949E
:101D700069F760957095809590959B01AC01BD01C8
:101D8000CF010895EE0FFF1F0590F491E02D099407
:101D90000F931F93CF93DF938230910510F482E06D
:101DA00090E0E0913202F091330230E020E0B0E0C8
:101DB000A0E0309799F42115310509F44AC0281B99
:101DC000390B24303105D8F58A819B816115710565
:101DD00089F1FB0193838283FE0111C0408151810F
:101DE0000281138148175907E0F04817590799F401
:101DF000109761F012960C93129713961C933296DB
:101E0000CF01DF91CF911F910F910895009332027E
:101E100010933302F4CF2115310551F042175307C7
:101E200038F0A901DB019A01BD01DF01F801C1CF42
:101E3000EF01F9CF9093330280933202CDCFFE01B0
:101E4000E20FF31F81939193225031093983288344
:101E5000D7CF2091300230913102232B41F42091D1
:101E60000701309108013093310220933002209114
:101E70000501309106012115310541F42DB73EB71A
:101E80004091090150910A01241B350BE091300269
:101E9000F0913102E217F307A0F42E1B3F0B281735
:101EA000390778F0AC014E5F5F4F2417350748F0D3
:101EB0004E0F5F1F509331024093300281939193F4
:101EC0009FCFF0E0E0E09CCFCF93DF930097E9F065
:101ED000FC01329713821282A0913202B091330238
:101EE000ED0130E020E01097A1F420813181820FD4
:101EF000931F20913002309131022817390709F0E1
:101F000061C0F0933102E0933002DF91CF910895E8
:101F1000EA01CE17DF07E8F54A815B819E01411592
:101F20005105B1F7E901FB83EA8349915991C40F47
:101F3000D51FEC17FD0761F4808191810296840F13
:101F4000951FE90199838883828193819B838A838A
:101F5000F0E0E0E012968D919C9113970097B9F50F
:101F60002D913C911197CD010296820F931F2091E4
:101F70003002309131022817390739F6309751F580
:101F80001092330210923202B0933102A0933002C9
:101F9000BCCFD383C28340815181840F951FC81762
:101FA000D90761F44E5F5F4F88819981480F591FAF
:101FB000518340838A819B819383828321153105DC
:101FC00009F0B0CFF0933302E09332029ECFFD01CF
:101FD000DC01C0CF13821282D7CFB0E0A0E0E3EFE4
:101FE000FFE00C944C0D8C01009751F4CB010E9442
:101FF000C80E8C01C801CDB7DEB7E0E10C94680DC6
:10200000FC01E60FF71F9C0122503109E217F3078C
:1020100008F49DC0D901CD91DC911197C617D7075F
:1020200098F0C530D10530F3CE0104978617970795
:1020300008F3C61BD70B2297C193D1936D937C9362
:10204000CF010E94640FD6CF5B01AC1ABD0A4C01D0
:102050008C0E9D1EA0913202B0913302512C412C66
:10206000F12CE12C109731F58091300290913102E2
:102070008815990509F05CC04616570608F058C047
:102080008091050190910601009741F48DB79EB7AC
:102090004091090150910A01841B950BE817F9073B
:1020A00008F055C0F0933102E0933002F9017183DA
:1020B0006083A0CF8D919C91119712966C9012978E
:1020C00013967C901397A815B90559F56C0142E059
:1020D000C40ED11CCA14DB0420F1AC014A195B09FF
:1020E000DA011296159780F06282738251834083E1
:1020F000D9016D937C93E114F10471F0D70113962B
:10210000FC93EE93129776CF22968C0F9D1FF901C8
:1021100091838083F301EFCFF0933302E093320297
:1021200069CF4816590608F42C017D01D3019ACFD6
:10213000CB010E94C80E7C01009749F0AE01B801A6
:102140000E94B210C8010E94640F870153CF10E0B3
:1021500000E050CF9111089581548A5108F4805EB7
:10216000855A0895FB01DC0102C001900D92415097
:102170005040D8F70895FB01DC0101900D9200203A
:10218000E1F70895FB01DC014150504048F0019017
:102190000D920020C9F701C01D9241505040E0F758
:1021A0000895F894FFCF9103910301000034028059
:1021B00000000000005D01BD00EA00AA011B01F95A
:1021C000000D016E616E00696E66006F7666004DEF
:1021D0006F64653A20003030300064697374616E5A
:1021E0006365206D6F64652C200020636D000D0A0F
:1021F0000074656D7065726174757265206D6F64D1
:08220000652C200020430000C2
:107E0000112484B714BE81FFF0D085E080938100F7
:107E100082E08093C00088E18093C10086E0809377
:107E2000C20080E18093C4008EE0C9D0259A86E02C
:107E300020E33CEF91E0309385002093840096BBD3
:107E4000B09BFECF1D9AA8958150A9F7CC24DD24C4
:107E500088248394B5E0AB2EA1E19A2EF3E0BF2EE7
:107E6000A2D0813461F49FD0082FAFD0023811F036
:107E7000013811F484E001C083E08DD089C08234E0
:107E800011F484E103C0853419F485E0A6D080C0E4
:107E9000853579F488D0E82EFF2485D0082F10E0AE
:107EA000102F00270E291F29000F111F8ED06801E7
:107EB0006FC0863521F484E090D080E0DECF843638
:107EC00009F040C070D06FD0082F6DD080E0C81688
:107ED00080E7D80618F4F601B7BEE895C0E0D1E017
:107EE00062D089930C17E1F7F0E0CF16F0E7DF06D8
:107EF00018F0F601B7BEE89568D007B600FCFDCFD4
:107F0000A601A0E0B1E02C9130E011968C91119780
:107F100090E0982F8827822B932B1296FA010C0160
:107F200087BEE89511244E5F5F4FF1E0A038BF0790
:107F300051F7F601A7BEE89507B600FCFDCF97BE46
:107F4000E89526C08437B1F42ED02DD0F82E2BD052
:107F50003CD0F601EF2C8F010F5F1F4F84911BD097
:107F6000EA94F801C1F70894C11CD11CFA94CF0C13
:107F7000D11C0EC0853739F428D08EE10CD085E9AC
:107F80000AD08FE07ACF813511F488E018D01DD067
:107F900080E101D065CF982F8091C00085FFFCCF94
:107FA0009093C60008958091C00087FFFCCF809118
:107FB000C00084FD01C0A8958091C6000895E0E648
:107FC000F0E098E1908380830895EDDF803219F02E
:107FD00088E0F5DFFFCF84E1DECF1F93182FE3DFCA
:107FE0001150E9F7F2DF1F91089580E0E8DFEE27F6
:047FF000FF270994CA
:027FFE00040479
:00000001FF
